:100000000C9465000C948D000C948D000C948D0064
:100010000C948D000C948D000C948D000C948D002C
:100020000C948D000C948D000C948D000C942F0476
:100030000C948D000C948D000C948D000C948D000C
:100040000C9499080C948D000C94460B0C94980B0E
:100050000C948D000C948D000C948D000C948D00EC
:100060000C94BB050C948D000000000024002700B8
:100070002A0000000000250028002B0000000000DE
:1000800023002600290004040404040404040202DA
:100090000202020203030303030301020408102007
:1000A0004080010204081020010204081020000012
:1000B0000007000201000003040600000000000029
:1000C0000000C701D4011D05070D11241FBECFEF8D
:1000D000D8E0DEBFCDBF11E0A0E0B1E0EAE2F0E29F
:1000E00002C005900D92A236B107D9F713E0A2E63F
:1000F000B1E001C01D92A031B107E1F710E0CAECF8
:10010000D0E004C02297FE010E940410C23CD10737
:10011000C9F70E945E0D0C9413100C9400002F92EE
:100120003F925F926F927F928F929F92AF92BF9217
:10013000CF92DF92EF92FF920F931F93CF93DF93B3
:100140008C011B01EA016115710519F0FB01918316
:100150008083209749F0CE010297839728F020E012
:1001600030E040E050E0F6C0F801A1908F018A2D08
:1001700090E00E940810892BB9F7FDE2AF1631F428
:10018000F801A1908F015524539407C0FBE2AF16EC
:1001900019F4F801A1908F015524209719F0C0316E
:1001A000D105C1F4F0E3AF1679F4F8018081883706
:1001B00011F0883549F4F801A1800E5F1F4FF2E07D
:1001C0005F2AC0E1D0E006C0209721F480E3A816A2
:1001D000E9F427C0C830D10531F1C930D10524F484
:1001E000C230D10531F50CC0CA30D10589F0C0311B
:1001F000D105F9F4C12CD12CE12CB8E0FB2E28C09C
:10020000C12CD12CE12CA0E4FA2E22C0CAE0D0E00F
:10021000FCECCF2EFCECDF2EFCECEF2EFCE0FF2EF6
:1002200017C0C8E0D0E0C12CD12CE12CE0E1FE2EBB
:100230000FC09E01442737FD4095542F60E070E0C9
:1002400080E090E80E94CC0FC901DA016C017D01C9
:1002500020E030E040E050E060E03E01882477FCA0
:100260008094982C70EDB72EBA0CE9E0EB1570F481
:100270008A2D81548A3118F499ECB92E06C08A2D42
:1002800081568A3150F589EAB82EBA0C8B2D90E050
:100290008C179D0714F56F3FE1F0C216D306E406F4
:1002A000F506B0F0CA01B901A40193010E948E0FB6
:1002B0009B01AC012B0D311D411D511D2130F0E082
:1002C0003F07F0E04F07F0E85F0710F461E001C07E
:1002D0006FEFF801A1908F01C5CF2114310481F097
:1002E000662331F001501040F1011183008308C0F2
:1002F00051FE1AC002501040F1011183008314C056
:1003000067FF12C050FC05C02FEF3FEF4FEF5FE7D4
:1003100004C020E030E040E050E882E290E09093BA
:100320000F0380930E0316C050FE08C050954095F1
:10033000309521953F4F4F4F5F4F0CC057FF0AC07C
:1003400082E290E090930F0380930E032FEF3FEF34
:100350004FEF5FE7B901CA01DF91CF911F910F9174
:10036000FF90EF90DF90CF90BF90AF909F908F90D5
:100370007F906F905F903F902F900895FC01808157
:1003800091816AE070E00E94B90FCB01089510924C
:100390006301109262011092650110926401109243
:1003A000670110926601089588E691E00E945A0361
:1003B0008BE691E00E945A030895019660E070E098
:1003C0004AE050E00E948F00CB0108950F931F93E5
:1003D000CF93DF938C01C0E0D0E08CEE92E00E94DE
:1003E0005A0C892BD1F38CEE92E00E948E0C8A304D
:1003F00041F0F801EC0FFD1F80832196C530D10537
:1004000061F7C00FD11F1882DF91CF911F910F911B
:100410000895AF92BF92CF92DF92EF92FF920F9327
:100420001F935C016A017B010CEE12E0C80160E0E1
:1004300071E00E94480AC801B5010E94480AC8013B
:1004400063E071E00E94480AC801B701A60122E0FA
:1004500030E00E942F0BC80167E071E00E94320B70
:100460001F910F91FF90EF90DF90CF90BF90AF90D2
:10047000089582E691E00E94BE01AA2797FDA0950B
:10048000BA2FBC01CD010E94730EAB01BC0189E003
:1004900091E00E9409020895CF92DF92EF92FF92BD
:1004A0000F931F938C016B018CEEE82E82E0F82EE7
:1004B000C70160E071E00E94480AC701B8010E94CC
:1004C000480AC70163E071E00E94480AC701B6010B
:1004D0004AE050E00E94350AC70167E071E00E94DF
:1004E000320B1F910F91FF90EF90DF90CF90089506
:1004F0008BE061E020ED37E040E050E00E94FD0736
:10050000CB019B0153E0220F331F5A95E1F7880F6F
:10051000991F820F931F6DE170E00E94B90F209127
:100520006E0130916F01621B730B87E691E021E051
:10053000683672071CF067567140F9CF77FF05C027
:100540009C01261B370BB901F2CF81E191E00E949B
:100550004C020895CF93DF93BC0184E06A317807A1
:100560001CF4CAE1D4E007C0EB0187E06B387807E0
:1005700014F0CAE8D7E08BE691E0BE010E94740354
:1005800086E191E0BE010E944C02DF91CF91089577
:10059000CF93DF93BC0184E0643278071CF4C4E29B
:1005A000D4E007C0EB0187E06138780714F0C0E8B9
:1005B000D7E088E691E0BE010E9474038BE191E0F0
:1005C000BE010E944C02DF91CF91089580E791E037
:1005D0000E94E60180917001823791F083372CF4FC
:1005E000833641F08F3611F519C0833781F0873794
:1005F000E9F403C00E94390208950E947802089528
:1006000080E791E00E94DD010E94C802089580E722
:1006100091E00E94DD010E94AA02089580E791E026
:100620000E94DD0190936F0180936E010895CF9237
:10063000DF92EF92FF920F931F937CEEC72E72E032
:10064000D72EC60140E855E260E070E00E94D30B6F
:1006500068E6E62E61E0F62EC7016AE070E044E24B
:1006600054E020E837E00E94B0030BE611E0C80137
:1006700069E070E04AE154E02AE837E00E94B00304
:10068000C7016CED75E00E947403C8016CED75E064
:100690000E94740381EE91E00E949505C60162E21A
:1006A00071E00E94320B1F910F91FF90EF90DF904D
:1006B000CF900895FC01809176018C3090F4808376
:1006C0008F5F80937601815090E0FC01EE0FFF1F59
:1006D000E80FF91FE958FE4F88EB9BE09283818376
:1006E00008958FEF80830895FC0120812C30B8F5A8
:1006F0008181992787FD909548E850E0481B590B68
:10070000440F551F440F551F6417750784F08281ED
:10071000992787FD909548E552E0481B590B440FF7
:10072000551F440F551F641775070CF4AB01425059
:100730005040CA01AA2797FDA095BA2F880F991F8C
:10074000AA1FBB1F4FB7F89430E0F901EE0FFF1F4F
:10075000E20FF31FE958FE4F928381834FBF089544
:10076000CF92DF92EF92FF921F93CF93DF93EC0132
:10077000162F7A01690188818C3008F064C0862FB9
:1007800061E00E946A07888190E0FC01EE0FFF1F84
:10079000E80FF91FE958FE4F1F738081807C812B81
:1007A000808380E292E08E199F0964E070E00E94ED
:1007B000B90F698380E699E08C199D0964E070E0C7
:1007C0000E94B90F6A83A8818A2F6CE00E94AD0F46
:1007D000682F70E0AB01440F551F460F571F440FA1
:1007E000551F440F551F20E030E0C901840F951FAD
:1007F000FC01EE0FFF1FE80FF91FE958FE4F808143
:1008000086FD15C02F5F3F4F2C30310571F724C096
:100810001092800082E080938100109285001092F7
:100820008400B19A80916F00826080936F008A2F5C
:1008300090E0FC01EE0FFF1FE80FF91FE958FE4F93
:100840008081806480838881DF91CF911F91FF90A8
:10085000EF90DF90CF900895672BD1F2E8CF1F92F1
:100860000F920FB60F9211242F933F934F935F93E4
:100870006F937F938F939F93AF93BF93EF93FF9368
:1008800080919B0187FF05C0109285001092840023
:100890002BC020919B01332727FD30958091760155
:1008A00090E02817390704F580919B01992787FD6F
:1008B0009095FC01EE0FFF1FE80FF91FE958FE4F5E
:1008C000808186FF11C080919B01992787FD9095BB
:1008D000FC01EE0FFF1FE80FF91FE958FE4F808162
:1008E0008F7360E00E94A90780919B018F5F8093C6
:1008F0009B0120919B01332727FD30958091760144
:1009000090E0281739070CF04EC080919B018C3085
:100910000CF049C0209184003091850080919B01AA
:10092000992787FD9095FC01EE0FFF1FE80FF91F37
:10093000E958FE4F81819281280F391F3093890039
:100940002093880080919B01992787FD9095FC0159
:10095000EE0FFF1FE80FF91FE958FE4F808186FF59
:100960002BC080919B01992787FD9095FC01EE0F8C
:10097000FF1FE80FF91FE958FE4F80818F7361E078
:100980000E94A90719C080E49CE905C080918400F9
:1009900090918500049690938900809388008FEF52
:1009A00080939B0109C080918400909185000496FA
:1009B00080549C4940F3EACFFF91EF91BF91AF91F2
:1009C0009F918F917F916F915F914F913F912F9167
:1009D0000F900FBE0F901F9018952091BD0130E031
:1009E0008091BC01281B3109C90108954091BC01C7
:1009F0008091BD01481718F02FEF3FEF0AC0E42F98
:100A0000F0E0E456FE4F8081282F30E04F5F4093A6
:100A1000BC01C9010895E091BC018091BD01E817B6
:100A200018F0EFEFFFEF06C0F0E0E456FE4F8081D4
:100A3000E82FF0E0CF01089508951092E40110929C
:100A4000E30188EE93E0A0E0B0E08093E5019093AD
:100A5000E601A093E701B093E80186E491E090936A
:100A6000E2018093E1010895CF92DF92EF92FF922D
:100A70000F931F93CF93DF937C016B018A018091C9
:100A8000E0018823A1F0C0E0D0E00DC0D701ED91D6
:100A9000FC91D601AC0FBD1F0190F081E02DC70184
:100AA0006C9109952196C017D10780F304C0CB0142
:100AB000642F0E94A005C801DF91CF911F910F9173
:100AC000FF90EF90DF90CF900895DF93CF930F9238
:100AD000CDB7DEB7FC0169838091E0018823C9F0BE
:100AE0008091DF01803238F081E090E0938382834F
:100AF00020E030E015C08091DE01E82FF0E0E25404
:100B0000FE4F998190838F5F8093DE018093DF0198
:100B100005C0CE01019661E00E94A00521E030E011
:100B2000C9010F90CF91DF9108951092BC011092EE
:100B3000BD011092DE011092DF010E944C07089562
:100B4000482F613210F081E008958091ED018430EA
:100B500011F082E0089560933802A7E1B2E0842F9B
:100B60009C01F90102C081918D938E2F841B861701
:100B7000D0F380E008951F920F920FB60F921124C8
:100B80002F933F934F935F936F937F938F939F9395
:100B9000AF93BF93EF93FF938091B90090E0887F6C
:100BA00090708036910509F4F2C081369105CCF53C
:100BB0008832910509F47BC089329105B4F4803103
:100BC000910509F46FC0813191053CF4009709F457
:100BD00047C1089709F04FC165C08831910509F4F4
:100BE00066C0809709F047C182C08034910509F43E
:100BF000A4C08134910544F48033910509F482C086
:100C0000C89709F038C189C08035910509F489C0B9
:100C10008835910509F496C08834910509F02BC1F7
:100C2000AEC08839910509F413C189399105ECF4F6
:100C30008837910509F4ABC0893791054CF48836A3
:100C4000910509F4A4C08037910509F014C19FC033
:100C50008838910509F4FCC08039910509F49DC0DC
:100C60008038910509F007C198C0803B910509F4CF
:100C7000C6C0813B91054CF4803A910509F49FC0B0
:100C8000883A910509F0F7C0BAC0803C910509F493
:100C9000E3C0883C910509F4DFC0883B910509F069
:100CA000EAC0C2C08091EE018093BB00CFC090919A
:100CB000150280911602981768F490911502E92F99
:100CC000F0E0EB50FE4F80818093BB009F5F9093DC
:100CD0001502BCC08091EF01882309F44BC085ED5B
:100CE0008093BC008091BC0084FDFCCFC2C080E238
:100CF00080935A0285ED8093BC008091BC0084FDF6
:100D0000FCCFB7C080E380935A0285ED8093BC008E
:100D10008091BC0084FDFCCFACC088E380935A0274
:100D20009BC0809115029091BB00E82FF0E0EB5042
:100D3000FE4F90838F5F80931502909115028091F2
:100D4000160282C0809115029091BB00E82FF0E05E
:100D5000EB50FE4F90838F5F809315028091EF01DF
:100D6000882341F085ED8093BC008091BC0084FD18
:100D7000FCCF7FC081E08093F00184EA6EC085EDF6
:100D80008093BC008091BC0084FDFCCF72C083E0E6
:100D90008093ED011092590259C08091590280321E
:100DA00008F056C0809159029091BB00E82FF0E006
:100DB000E75CFD4F90838F5F8093590247C080911D
:100DC0005902803230F4E0915902F0E0E75CFD4FC7
:100DD000108285ED8093BC008091BC0084FDFCCF27
:100DE0001092ED0160915902E091F301F091F4014C
:100DF00089E392E070E00995109259022DC084E0D9
:100E00008093ED011092370210923802E091F101C7
:100E1000F091F201099580913802882329F481E04C
:100E2000809338021092170290913702E92FF0E078
:100E3000E95EFD4F80818093BB009F5F90933702F6
:100E40009091370280913802981710F485EC01C018
:100E500085E88093BC000FC085EC8093BC0009C07E
:100E600010925A0285ED8093BC008091BC0084FDF5
:100E7000FCCF1092ED01FF91EF91BF91AF919F9147
:100E80008F917F916F915F914F913F912F910F9033
:100E90000FBE0F901F9018951092ED0181E0809386
:100EA000EF011092F00182E161E00E94A90783E165
:100EB00061E00E94A907E9EBF0E080818E7F8083EA
:100EC00080818D7F808388E48093B80085E480935F
:100ED000BC000895CF93DF93482F50E0CA01865697
:100EE0009F4FFC0134914A575F4FFA018491882348
:100EF00069F190E0880F991FFC01E859FF4FA59117
:100F0000B491FC01EE58FF4FC591D491662351F482
:100F10002FB7F8948C91932F909589238C93888187
:100F200089230BC0623061F42FB7F8948C91932F12
:100F3000909589238C938881832B88832FBF06C04B
:100F40009FB7F8948C91832B8C939FBFDF91CF91A7
:100F50000895482F50E0CA0182559F4FFC0124910B
:100F6000CA0186569F4FFC0194914A575F4FFA0180
:100F70003491332309F440C0222351F1233071F01E
:100F8000243028F42130A1F0223011F514C026308D
:100F9000B1F02730C1F02430D9F404C08091800032
:100FA0008F7703C0809180008F7D8093800010C078
:100FB00084B58F7702C084B58F7D84BD09C08091D0
:100FC000B0008F7703C08091B0008F7D8093B00018
:100FD000E32FF0E0EE0FFF1FEE58FF4FA591B49105
:100FE0002FB7F894662321F48C919095892302C041
:100FF0008C91892B8C932FBF08958F929F92AF92E3
:10100000BF92CF92DF92EF92FF920F931F93CF93F5
:10101000DF93A82FB0E0CD0186569F4FFC0184904E
:10102000AA57BF4FFD018491662311F4992401C092
:10103000982C6FEFA62E6FEFB62E6FEFC62E6FE0D7
:10104000D62EA222B322C422D522682F70E0660FCA
:10105000771F64587F4FEE24FF248701FB01A59181
:10106000B4910BC0EA14FB040C051D0509F44EC035
:101070000894E11CF11C011D111D8C91882189151A
:1010800089F30CC0EA14FB040C051D0509F43EC0ED
:101090000894E11CF11C011D111D03C0FB01A59169
:1010A000B4918C918821891569F720E030E040E007
:1010B00050E0FB01C591D4910FC0DA01C9018E0D3A
:1010C0009F1DA01FB11F8A159B05AC05BD05F1F042
:1010D0002F5F3F4F4F4F5F4F88818821891569F3FC
:1010E000CA01B90125E130E040E050E00E948E0FD6
:1010F0009B01AC01205F3F4F4F4F5F4F84E05695FF
:101100004795379527958A95D1F704C020E030E0C0
:1011100040E050E0B901CA01DF91CF911F910F91DA
:10112000FF90EF90DF90CF90BF90AF909F908F9007
:1011300008951F920F920FB60F9211242F933F9391
:101140008F939F93AF93BF9380915F0290916002C2
:10115000A0916102B0916202309163020196A11DDB
:10116000B11D232F2D5F2D3720F02D570196A11D86
:10117000B11D2093630280935F0290936002A0935D
:101180006102B093620280915B0290915C02A09137
:101190005D02B0915E020196A11DB11D80935B02BC
:1011A00090935C02A0935D02B0935E02BF91AF91F9
:1011B0009F918F913F912F910F900FBE0F901F9095
:1011C0001895789484B5826084BD84B5816084BDAF
:1011D00085B5826085BD85B5816085BDEEE6F0E0B0
:1011E000808181608083E1E8F0E01082808182600C
:1011F0008083808181608083E0E8F0E0808181608D
:101200008083E1EBF0E0808184608083E0EBF0E0BC
:10121000808181608083EAE7F0E080818460808360
:10122000808182608083808181608083808180680A
:1012300080831092C1000895CF92DF92EF92FF92C7
:101240000F931F93CF93DF937C016B018A01C0E062
:10125000D0E00FC0D6016D916D01D701ED91FC91E9
:101260000190F081E02DC7010995C80FD91F0150E9
:1012700010400115110571F7CE01DF91CF911F913B
:101280000F91FF90EF90DF90CF900895EF92FF9233
:101290000F931F938C01DC01ED91FC910190F08183
:1012A000E02D6DE009957C01D801ED91FC91019054
:1012B000F081E02DC8016AE009959C012E0D3F1DCB
:1012C000C9011F910F91FF90EF900895CF93DF9385
:1012D000EC016115710519F420E030E00FC0DB016D
:1012E0000D900020E9F71197A61BB70BE881F98153
:1012F0000280F381E02DAD0109959C01C901DF91C8
:10130000CF9108954F925F927F928F929F92AF926A
:10131000BF92CF92DF92EF92FF920F931F93DF93D2
:10132000CF93CDB7DEB7A1970FB6F894DEBF0FBE4F
:10133000CDBF2C01742ECB01223008F42AE019A273
:1013400031E2C32ED12CCC0EDD1E822E9924AA248C
:10135000BB24672D752FA50194010E94CC0F790144
:101360008A01C801B701A50194010E948E0F472D83
:10137000461B0894C108D1084A3014F4405D01C0EE
:10138000495CF6014083E114F1040105110521F0E7
:101390007E2C5F2DC801DDCFC201B6010E94660917
:1013A000A1960FB6F894DEBF0FBECDBFCF91DF91EF
:1013B0001F910F91FF90EF90DF90CF90BF90AF9073
:1013C0009F908F907F905F904F900895DC01211542
:1013D000310541F4ED91FC910190F081E02D642FF5
:1013E000099508950E9482090895CF92DF92EF92A5
:1013F000FF920F931F93CF93DF93EC016A017B0160
:101400002115310541F4E881F9810190F081E02D49
:10141000642F09951FC02A303105D1F477FF17C01A
:10142000E881F9810190F081E02D6DE209958C0150
:1014300044275527BA014C195D096E097F09CE0171
:101440002AE00E9482099801280F391F04C02AE06F
:101450000E9482099C01C901DF91CF911F910F91D8
:10146000FF90EF90DF90CF900895EF92FF920F934F
:101470001F937B019A010027F7FC0095102FB801FC
:10148000A7010E94F5091F910F91FF90EF90089519
:101490000E94660908957F928F929F92AF92BF92A9
:1014A000CF92DF92EF92FF920F931F93CF93DF9330
:1014B0004C017A018B01722ECB01BA01A801970170
:1014C0000E948A0F882321F0C40164E371E021C0E7
:1014D000C0E0D0E057016801E894D7F8C601B50133
:1014E0002FEF3FEF4FE75FE70E948A0F882351F409
:1014F000C601B5012FEF3FEF4FE75FE70E94D40D24
:10150000181614F0C1E0D0E0219739F0C40168E367
:1015100071E00E946609EC0193C0C801B7012FEF8A
:101520003FEF4FE75FE40E94230F181654F0C80105
:10153000B7012FEF3FEF4FE75FEC0E94D40D8823F8
:1015400024F4C4016CE371E0E4CFC801B70120E0EA
:1015500030E040E050E00E94D40D87FD03C0C0E0C1
:10156000D0E00EC0D401ED91FC910190F081E02D0E
:10157000C4016DE20995EC0117FB109517F9109560
:1015800020E030E040E05FE3DD240BC0CA01B90198
:1015900020E030E040E251E40E94D80D9B01AC0114
:1015A000D394D71498F3C801B7010E94700D5B0162
:1015B0006C010E94450E7B018C01C401B801A7019A
:1015C0002AE030E00E94E609C80FD91F772039F0E1
:1015D000C40160E471E00E946609C80FD91FC80108
:1015E000B7010E94710E9B01AC01C601B5010E94BA
:1015F0006F0D24C020E030E040E251E40E94270F4C
:101600007B018C010E94400E5B016C01CC24B7FC75
:10161000C094DC2CC401B601A5012AE030E00E9490
:10162000F509C80FD91FC601B5010E94730E9B01B1
:10163000AC01C801B7010E946F0D7A947720D1F6F2
:10164000CE01DF91CF911F910F91FF90EF90DF902E
:10165000CF90BF90AF909F908F907F9008950E9401
:101660004B0A0895EF92FF920F931F937C010E9403
:1016700066098C01C7010E944609080F191FC8019D
:101680001F910F91FF90EF90089508951F920F9270
:101690000FB60F9211242F933F934F938F939F93E5
:1016A000EF93FF938091C00082FD1DC04091C60062
:1016B0002091A4023091A5022F5F3F4F2F7330700D
:1016C0008091A6029091A7022817390771F0E09146
:1016D000A402F091A502EC59FD4F40833093A5027E
:1016E0002093A40202C08091C600FF91EF919F91C8
:1016F0008F914F913F912F910F900FBE0F901F90A0
:101700001895E091F802F091F902E05CFF4F8191A9
:10171000919120813181805C9F4F821B930B60E40B
:1017200070E00E94B90F892B11F00E94450B0895BB
:101730001F920F920FB60F9211242F933F938F9306
:101740009F93EF93FF932091E8023091E9028091FB
:10175000EA029091EB022817390731F48091C10019
:101760008F7D8093C10014C0E091EA02F091EB02FA
:10177000E855FD4F20818091EA029091EB0201969D
:101780008F7390709093EB028093EA022093C600CF
:10179000FF91EF919F918F913F912F910F900FBEED
:1017A0000F901F901895AF92BF92DF92EF92FF9229
:1017B0000F931F93CF93DF93EC017A018B01DD240C
:1017C000403081EE580780E0680780E0780711F02C
:1017D000DD24D39491E0A92EB12CEC89FD89DD2084
:1017E00069F0C50108A002C0880F991F0A94E2F7AA
:1017F000808360E079E08DE390E005C0108260E8CE
:1018000074E88EE190E0A80197010E94CC0F21506E
:10181000304040405040569547953795279580E198
:101820002030380720F0DD2011F0DD24D6CFE88904
:10183000F9893083EA89FB89208319A2EE89FF891F
:10184000408121E030E0C9010C8C02C0880F991F53
:101850000A94E2F7482B4083EE89FF894081C90151
:101860000D8C02C0880F991F0A94E2F7482B408321
:10187000EE89FF894081C9010E8C02C0880F991F33
:101880000A94E2F7482B4083EE89FF8980810F8C10
:1018900002C0220F331F0A94E2F7209528232083E9
:1018A000DF91CF911F910F91FF90EF90DF90BF904C
:1018B000AF900895DC011C96ED91FC911D97E05CC2
:1018C000FF4F8191919120813181805C9F4F821BDC
:1018D000930B60E470E00E94B90F0895DC011C9640
:1018E000ED91FC911D97E05CFF4F20813181E05428
:1018F000F040DF01AE5BBF4F8D919C91119728178F
:10190000390719F42FEF3FEF07C08D919C91E80F35
:10191000F91F8081282F30E0C9010895DC011C9651
:10192000ED91FC911D97E05CFF4F20813181E054E7
:10193000F040DF01AE5BBF4F8D919C91119728174E
:10194000390719F42FEF3FEF10C08D919C9111973B
:10195000E80FF91F20818D919C91119701968F734B
:10196000907011969C938E9330E0C9010895DC012C
:1019700091968C919197882339F05496ED91FC9132
:101980005597808186FFF9CF91961C920895CF9349
:10199000DF93EC01EE85FF85E05CFF4F2081318114
:1019A000E054F0402F5F3F4F2F733070DF01AE5B8C
:1019B000BF4F8D919C91119728173907D1F3E05CA7
:1019C000FF4F80819181E054F040E80FF91F608360
:1019D000EE85FF85E05CFF4F31832083EE89FF8930
:1019E000208181E090E00F8C02C0880F991F0A943B
:1019F000E2F7282B208381E089A3EC89FD8980818F
:101A00008064808381E090E0DF91CF91089510920F
:101A1000EF021092EE0288EE93E0A0E0B0E0809337
:101A2000F0029093F102A093F202B093F30286E5E4
:101A300091E09093ED028093EC0284E692E0909323
:101A4000F9028093F80288EA92E09093FB02809377
:101A5000FA0285EC90E09093FD028093FC0284EC06
:101A600090E09093FF028093FE0280EC90E09093D0
:101A700001038093000381EC90E090930303809333
:101A8000020382EC90E0909305038093040386ECBC
:101A900090E0909307038093060384E0809308030B
:101AA00083E08093090387E080930A0385E08093B5
:101AB0000B0381E080930C0308950895CF93DF9387
:101AC0000E94E1080E945D0D0E941703C1E8DBE05F
:101AD0000E94E6022097E1F30E94810BF9CF505853
:101AE000BB27AA270ED075C166D130F06BD120F08C
:101AF00031F49F3F11F41EF45BC10EF4E095E7FB57
:101B000051C1E92F77D180F3BA17620773078407B1
:101B1000950718F071F49EF58FC10EF4E0950B2E29
:101B2000BA2FA02D0B01B90190010C01CA01A0012F
:101B30001124FF27591B99F0593F50F4503E68F18A
:101B40001A16F040A22F232F342F4427585FF3CFCB
:101B5000469537952795A795F0405395C9F77EF49C
:101B60001F16BA0B620B730B840BBAF09150A1F0E5
:101B7000FF0FBB1F661F771F881FC2F70EC0BA0F6B
:101B8000621F731F841F48F4879577956795B795F3
:101B9000F7959E3F08F0B3CF9395880F08F09927EB
:101BA000EE0F979587950895D9D008F481E00895B0
:101BB0000CD00FC107D140F0FED030F021F45F3FD0
:101BC00019F0F0C0511139C1F3C014D198F3992321
:101BD000C9F35523B1F3951B550BBB27AA276217F1
:101BE0007307840738F09F5F5F4F220F331F441F36
:101BF000AA1FA9F333D00E2E3AF0E0E830D091506E
:101C00005040E695001CCAF729D0FE2F27D0660F5A
:101C1000771F881FBB1F261737074807AB07B0E899
:101C200009F0BB0B802DBF01FF2793585F4F2AF0AF
:101C30009E3F510568F0B6C000C15F3FECF3983E8F
:101C4000DCF3869577956795B795F7959F5FC9F70C
:101C5000880F911D9695879597F90895E1E0660F95
:101C6000771F881FBB1F621773078407BA0720F00E
:101C7000621B730B840BBA0BEE1F88F7E095089577
:101C800004D06894B111D9C00895BCD088F09F5792
:101C900090F0B92F9927B751A0F0D1F0660F771FB8
:101CA000881F991F1AF0BA95C9F712C0B13081F098
:101CB000C3D0B1E00895C0C0672F782F8827B85FE0
:101CC00039F0B93FCCF3869577956795B395D9F7F9
:101CD0003EF490958095709561957F4F8F4F9F4F03
:101CE0000895E89409C097FB3EF49095809570950F
:101CF00061957F4F8F4F9F4F9923A9F0F92F96E958
:101D0000BB279395F695879577956795B795F111CC
:101D1000F8CFFAF4BB0F11F460FF1BC06F5F7F4F69
:101D20008F4F9F4F16C0882311F096E911C077237B
:101D300021F09EE8872F762F05C0662371F096E884
:101D4000862F70E060E02AF09A95660F771F881F53
:101D5000DAF7880F9695879597F90895990F0008F7
:101D6000550FAA0BE0E8FEEF16161706E807F9076D
:101D7000C0F012161306E407F50798F0621B730B08
:101D8000840B950B39F40A2661F0232B242B252B89
:101D900021F408950A2609F4A140A6958FEF811D2C
:101DA000811D089597F99F6780E870E060E00895CD
:101DB0009FEF80EC089500240A9416161706180663
:101DC0000906089500240A9412161306140605063F
:101DD0000895092E0394000C11F4882352F0BB0FD0
:101DE00040F4BF2B11F460FF04C06F5F7F4F8F4F33
:101DF0009F4F089557FD9058440F551F59F05F3F6E
:101E000071F04795880F97FB991F61F09F3F79F01C
:101E100087950895121613061406551FF2CF46959E
:101E2000F1DF08C0161617061806991FF1CF869520
:101E30007105610508940895E894BB276627772704
:101E4000CB0197F908958ADF08F48FEF08950BD03E
:101E5000C0CFB1DF28F0B6DF18F0952309F0A2CF8C
:101E6000A7CF1124EACFC6DFA0F3959FD1F3950F3A
:101E700050E0551F629FF001729FBB27F00DB11D0E
:101E8000639FAA27F00DB11DAA1F649F6627B00D9E
:101E9000A11D661F829F2227B00DA11D621F739F87
:101EA000B00DA11D621F839FA00D611D221F749F95
:101EB0003327A00D611D231F849F600D211D822FDC
:101EC000762F6A2F11249F5750408AF0E1F0882323
:101ED0004AF0EE0FFF1FBB1F661F771F881F915030
:101EE0005040A9F79E3F510570F05CCFA6CF5F3FF1
:101EF000ECF3983EDCF3869577956795B795F79563
:101F0000E7959F5FC1F7FE2B880F911D96958795EA
:101F100097F9089523DF880B990B0895629FD001EC
:101F2000739FF001829FE00DF11D649FE00DF11D94
:101F3000929FF00D839FF00D749FF00D659FF00D43
:101F40009927729FB00DE11DF91F639FB00DE11D30
:101F5000F91FBD01CF0111240895991B79E004C038
:101F6000991F961708F0961B881F7A95C9F78095D8
:101F7000089597FB092E07260AD077FD04D02ED0AE
:101F800006D000201AF4709561957F4F0895F6F7FA
:101F9000909581959F4F0895A1E21A2EAA1BBB1B15
:101FA000FD010DC0AA1FBB1FEE1FFF1FA217B30725
:101FB000E407F50720F0A21BB30BE40BF50B661F3B
:101FC000771F881F991F1A9469F7609570958095FF
:101FD00090959B01AC01BD01CF010895AA1BBB1BCD
:101FE00051E107C0AA1FBB1FA617B70710F0A61B19
:101FF000B70B881F991F5A95A9F780959095BC013A
:10200000CD010895EE0FFF1F0590F491E02D099486
:10201000911106C0803219F089508550D0F708958B
:0A202000992788270895F894FFCF50
:10202A007B2200223A20007D00636F6D706173731A
:10203A000077696E64007361696C00727564646527
:10204A0072007B2273746172746564223A2074721E
:10205A0075657D006E616E00696E66006F7666005A
:10206A002E000000000065053405ED04F6040B059A
:10207A001C0500000000C70C1C095A0C8E0C6E0CC3
:02208A00B70C91
:00000001FF
